{
  "_format": "hh-sol-artifact-1",
  "contractName": "Escrow",
  "sourceName": "contracts/Escrow.sol",
  "abi": [
    {
      "inputs": [
        {
          "internalType": "address",
          "name": "_eip20",
          "type": "address"
        },
        {
          "internalType": "address payable",
          "name": "_canceler",
          "type": "address"
        },
        {
          "internalType": "uint256",
          "name": "_duration",
          "type": "uint256"
        },
        {
          "internalType": "address[]",
          "name": "_handlers",
          "type": "address[]"
        }
      ],
      "stateMutability": "nonpayable",
      "type": "constructor"
    },
    {
      "anonymous": false,
      "inputs": [
        {
          "indexed": true,
          "internalType": "uint256",
          "name": "_txId",
          "type": "uint256"
        },
        {
          "indexed": false,
          "internalType": "uint256",
          "name": "_bulkCount",
          "type": "uint256"
        }
      ],
      "name": "BulkTransfer",
      "type": "event"
    },
    {
      "anonymous": false,
      "inputs": [
        {
          "indexed": false,
          "internalType": "string",
          "name": "_url",
          "type": "string"
        },
        {
          "indexed": false,
          "internalType": "string",
          "name": "_hash",
          "type": "string"
        }
      ],
      "name": "IntermediateStorage",
      "type": "event"
    },
    {
      "anonymous": false,
      "inputs": [
        {
          "indexed": false,
          "internalType": "string",
          "name": "manifest",
          "type": "string"
        },
        {
          "indexed": false,
          "internalType": "string",
          "name": "hash",
          "type": "string"
        }
      ],
      "name": "Pending",
      "type": "event"
    },
    {
      "inputs": [],
      "name": "abort",
      "outputs": [],
      "stateMutability": "nonpayable",
      "type": "function"
    },
    {
      "inputs": [
        {
          "internalType": "address[]",
          "name": "_handlers",
          "type": "address[]"
        }
      ],
      "name": "addTrustedHandlers",
      "outputs": [],
      "stateMutability": "nonpayable",
      "type": "function"
    },
    {
      "inputs": [
        {
          "internalType": "address",
          "name": "",
          "type": "address"
        }
      ],
      "name": "areTrustedHandlers",
      "outputs": [
        {
          "internalType": "bool",
          "name": "",
          "type": "bool"
        }
      ],
      "stateMutability": "view",
      "type": "function"
    },
    {
      "inputs": [],
      "name": "bulkPaid",
      "outputs": [
        {
          "internalType": "bool",
          "name": "",
          "type": "bool"
        }
      ],
      "stateMutability": "view",
      "type": "function"
    },
    {
      "inputs": [
        {
          "internalType": "address[]",
          "name": "_recipients",
          "type": "address[]"
        },
        {
          "internalType": "uint256[]",
          "name": "_amounts",
          "type": "uint256[]"
        },
        {
          "internalType": "string",
          "name": "_url",
          "type": "string"
        },
        {
          "internalType": "string",
          "name": "_hash",
          "type": "string"
        },
        {
          "internalType": "uint256",
          "name": "_txId",
          "type": "uint256"
        }
      ],
      "name": "bulkPayOut",
      "outputs": [
        {
          "internalType": "bool",
          "name": "",
          "type": "bool"
        }
      ],
      "stateMutability": "nonpayable",
      "type": "function"
    },
    {
      "inputs": [],
      "name": "cancel",
      "outputs": [
        {
          "internalType": "bool",
          "name": "",
          "type": "bool"
        }
      ],
      "stateMutability": "nonpayable",
      "type": "function"
    },
    {
      "inputs": [],
      "name": "canceler",
      "outputs": [
        {
          "internalType": "address payable",
          "name": "",
          "type": "address"
        }
      ],
      "stateMutability": "view",
      "type": "function"
    },
    {
      "inputs": [],
      "name": "complete",
      "outputs": [],
      "stateMutability": "nonpayable",
      "type": "function"
    },
    {
      "inputs": [],
      "name": "duration",
      "outputs": [
        {
          "internalType": "uint256",
          "name": "",
          "type": "uint256"
        }
      ],
      "stateMutability": "view",
      "type": "function"
    },
    {
      "inputs": [],
      "name": "eip20",
      "outputs": [
        {
          "internalType": "address",
          "name": "",
          "type": "address"
        }
      ],
      "stateMutability": "view",
      "type": "function"
    },
    {
      "inputs": [
        {
          "internalType": "uint256",
          "name": "",
          "type": "uint256"
        }
      ],
      "name": "finalAmounts",
      "outputs": [
        {
          "internalType": "uint256",
          "name": "",
          "type": "uint256"
        }
      ],
      "stateMutability": "view",
      "type": "function"
    },
    {
      "inputs": [],
      "name": "finalResultsHash",
      "outputs": [
        {
          "internalType": "string",
          "name": "",
          "type": "string"
        }
      ],
      "stateMutability": "view",
      "type": "function"
    },
    {
      "inputs": [],
      "name": "finalResultsUrl",
      "outputs": [
        {
          "internalType": "string",
          "name": "",
          "type": "string"
        }
      ],
      "stateMutability": "view",
      "type": "function"
    },
    {
      "inputs": [],
      "name": "getBalance",
      "outputs": [
        {
          "internalType": "uint256",
          "name": "",
          "type": "uint256"
        }
      ],
      "stateMutability": "view",
      "type": "function"
    },
    {
      "inputs": [],
      "name": "launcher",
      "outputs": [
        {
          "internalType": "address",
          "name": "",
          "type": "address"
        }
      ],
      "stateMutability": "view",
      "type": "function"
    },
    {
      "inputs": [],
      "name": "manifestHash",
      "outputs": [
        {
          "internalType": "string",
          "name": "",
          "type": "string"
        }
      ],
      "stateMutability": "view",
      "type": "function"
    },
    {
      "inputs": [],
      "name": "manifestUrl",
      "outputs": [
        {
          "internalType": "string",
          "name": "",
          "type": "string"
        }
      ],
      "stateMutability": "view",
      "type": "function"
    },
    {
      "inputs": [],
      "name": "recordingOracle",
      "outputs": [
        {
          "internalType": "address",
          "name": "",
          "type": "address"
        }
      ],
      "stateMutability": "view",
      "type": "function"
    },
    {
      "inputs": [],
      "name": "recordingOracleStake",
      "outputs": [
        {
          "internalType": "uint256",
          "name": "",
          "type": "uint256"
        }
      ],
      "stateMutability": "view",
      "type": "function"
    },
    {
      "inputs": [],
      "name": "reputationOracle",
      "outputs": [
        {
          "internalType": "address",
          "name": "",
          "type": "address"
        }
      ],
      "stateMutability": "view",
      "type": "function"
    },
    {
      "inputs": [],
      "name": "reputationOracleStake",
      "outputs": [
        {
          "internalType": "uint256",
          "name": "",
          "type": "uint256"
        }
      ],
      "stateMutability": "view",
      "type": "function"
    },
    {
      "inputs": [
        {
          "internalType": "address",
          "name": "_reputationOracle",
          "type": "address"
        },
        {
          "internalType": "address",
          "name": "_recordingOracle",
          "type": "address"
        },
        {
          "internalType": "uint256",
          "name": "_reputationOracleStake",
          "type": "uint256"
        },
        {
          "internalType": "uint256",
          "name": "_recordingOracleStake",
          "type": "uint256"
        },
        {
          "internalType": "string",
          "name": "_url",
          "type": "string"
        },
        {
          "internalType": "string",
          "name": "_hash",
          "type": "string"
        }
      ],
      "name": "setup",
      "outputs": [],
      "stateMutability": "nonpayable",
      "type": "function"
    },
    {
      "inputs": [],
      "name": "status",
      "outputs": [
        {
          "internalType": "enum Escrow.EscrowStatuses",
          "name": "",
          "type": "uint8"
        }
      ],
      "stateMutability": "view",
      "type": "function"
    },
    {
      "inputs": [
        {
          "internalType": "string",
          "name": "_url",
          "type": "string"
        },
        {
          "internalType": "string",
          "name": "_hash",
          "type": "string"
        }
      ],
      "name": "storeResults",
      "outputs": [],
      "stateMutability": "nonpayable",
      "type": "function"
    }
  ],
  "bytecode": "0x60806040523480156200001157600080fd5b50604051620043d0380380620043d08339818101604052810190620000379190620004cf565b83600660006101000a81548173ffffffffffffffffffffffffffffffffffffffff021916908373ffffffffffffffffffffffffffffffffffffffff16021790555060008060006101000a81548160ff02191690836005811115620000c4577f4e487b7100000000000000000000000000000000000000000000000000000000600052602160045260246000fd5b0217905550620000e342836200023660201b620022e01790919060201c565b600b8190555033600260006101000a81548173ffffffffffffffffffffffffffffffffffffffff021916908373ffffffffffffffffffffffffffffffffffffffff16021790555082600360006101000a81548173ffffffffffffffffffffffffffffffffffffffff021916908373ffffffffffffffffffffffffffffffffffffffff1602179055506001600e60008573ffffffffffffffffffffffffffffffffffffffff1673ffffffffffffffffffffffffffffffffffffffff16815260200190815260200160002060006101000a81548160ff0219169083151502179055506001600e60003373ffffffffffffffffffffffffffffffffffffffff1673ffffffffffffffffffffffffffffffffffffffff16815260200190815260200160002060006101000a81548160ff0219169083151502179055506200022c816200029960201b60201c565b505050506200085f565b6000808284620002479190620006b6565b9050838110156200028f576040517f08c379a00000000000000000000000000000000000000000000000000000000081526004016200028690620005fe565b60405180910390fd5b8091505092915050565b600e60003373ffffffffffffffffffffffffffffffffffffffff1673ffffffffffffffffffffffffffffffffffffffff16815260200190815260200160002060009054906101000a900460ff1662000328576040517f08c379a00000000000000000000000000000000000000000000000000000000081526004016200031f9062000620565b60405180910390fd5b60005b8151811015620003e4576001600e600084848151811062000375577f4e487b7100000000000000000000000000000000000000000000000000000000600052603260045260246000fd5b602002602001015173ffffffffffffffffffffffffffffffffffffffff1673ffffffffffffffffffffffffffffffffffffffff16815260200190815260200160002060006101000a81548160ff0219169083151502179055508080620003db9062000765565b9150506200032b565b5050565b6000620003ff620003f98462000676565b62000642565b905080838252602082019050828560208602820111156200041f57600080fd5b60005b858110156200045357816200043888826200045d565b84526020840193506020830192505060018101905062000422565b5050509392505050565b6000815190506200046e8162000811565b92915050565b60008151905062000485816200082b565b92915050565b600082601f8301126200049d57600080fd5b8151620004af848260208601620003e8565b91505092915050565b600081519050620004c98162000845565b92915050565b60008060008060808587031215620004e657600080fd5b6000620004f6878288016200045d565b9450506020620005098782880162000474565b93505060406200051c87828801620004b8565b925050606085015167ffffffffffffffff8111156200053a57600080fd5b62000548878288016200048b565b91505092959194509250565b600062000563601b83620006a5565b91507f536166654d6174683a206164646974696f6e206f766572666c6f7700000000006000830152602082019050919050565b6000620005a5602b83620006a5565b91507f416464726573732063616c6c696e672063616e6e6f742061646420747275737460008301527f65642068616e646c6572730000000000000000000000000000000000000000006020830152604082019050919050565b60006020820190508181036000830152620006198162000554565b9050919050565b600060208201905081810360008301526200063b8162000596565b9050919050565b6000604051905081810181811067ffffffffffffffff821117156200066c576200066b620007e2565b5b8060405250919050565b600067ffffffffffffffff821115620006945762000693620007e2565b5b602082029050602081019050919050565b600082825260208201905092915050565b6000620006c3826200075b565b9150620006d0836200075b565b9250827fffffffffffffffffffffffffffffffffffffffffffffffffffffffffffffffff03821115620007085762000707620007b3565b5b828201905092915050565b600062000720826200073b565b9050919050565b600062000734826200073b565b9050919050565b600073ffffffffffffffffffffffffffffffffffffffff82169050919050565b6000819050919050565b600062000772826200075b565b91507fffffffffffffffffffffffffffffffffffffffffffffffffffffffffffffffff821415620007a857620007a7620007b3565b5b600182019050919050565b7f4e487b7100000000000000000000000000000000000000000000000000000000600052601160045260246000fd5b7f4e487b7100000000000000000000000000000000000000000000000000000000600052604160045260246000fd5b6200081c8162000713565b81146200082857600080fd5b50565b620008368162000727565b81146200084257600080fd5b50565b62000850816200075b565b81146200085c57600080fd5b50565b613b61806200086f6000396000f3fe608060405234801561001057600080fd5b50600436106101585760003560e01c80639753e432116100c3578063cc06cfa91161007c578063cc06cfa91461035f578063d65281f01461037d578063ea8a1af0146103ad578063f17171e9146103cb578063f926657e146103fb578063fad844c11461041757610158565b80639753e4321461029b578063992d454d146102b95780639c48b102146102d75780639eb262f3146102f5578063b63d1a0014610311578063bb19d62f1461034157610158565b8063200d2ed211610115578063200d2ed214610211578063337f3f321461022f57806335a063b41461024d57806343aba9c214610257578063522e117714610275578063697e4b871461027f57610158565b80630529198f1461015d5780630f46c9aa1461017b5780630fb5a6b41461019957806312065fe0146101b757806316eebd1e146101d5578063196214d3146101f3575b600080fd5b610165610435565b604051610172919061364a565b60405180910390f35b61018361043b565b604051610190919061337a565b60405180910390f35b6101a16104c9565b6040516101ae919061364a565b60405180910390f35b6101bf6104cf565b6040516101cc919061364a565b60405180910390f35b6101dd610581565b6040516101ea91906132bc565b60405180910390f35b6101fb6105a7565b60405161020891906132bc565b60405180910390f35b6102196105cd565b604051610226919061335f565b60405180910390f35b6102376105de565b604051610244919061337a565b60405180910390f35b61025561066c565b005b61025f6108ce565b60405161026c919061337a565b60405180910390f35b61027d61095c565b005b61029960048036038101906102949190612bad565b610b96565b005b6102a3610deb565b6040516102b091906132bc565b60405180910390f35b6102c1610e11565b6040516102ce91906132d7565b60405180910390f35b6102df610e37565b6040516102ec919061337a565b60405180910390f35b61030f600480360381019061030a9190612a6c565b610ec5565b005b61032b60048036038101906103269190612aad565b61100c565b6040516103389190613344565b60405180910390f35b6103496119b2565b604051610356919061364a565b60405180910390f35b6103676119b8565b6040516103749190613344565b60405180910390f35b61039760048036038101906103929190612c19565b6119cb565b6040516103a4919061364a565b60405180910390f35b6103b56119ef565b6040516103c29190613344565b60405180910390f35b6103e560048036038101906103e0919061298a565b611d7d565b6040516103f29190613344565b60405180910390f35b610415600480360381019061041091906129b3565b611d9d565b005b61041f6122ba565b60405161042c91906132bc565b60405180910390f35b60055481565b600a80546104489061395b565b80601f01602080910402602001604051908101604052809291908181526020018280546104749061395b565b80156104c15780601f10610496576101008083540402835291602001916104c1565b820191906000526020600020905b8154815290600101906020018083116104a457829003601f168201915b505050505081565b600b5481565b6000600660009054906101000a900473ffffffffffffffffffffffffffffffffffffffff1673ffffffffffffffffffffffffffffffffffffffff166370a08231306040518263ffffffff1660e01b815260040161052c91906132bc565b60206040518083038186803b15801561054457600080fd5b505afa158015610558573d6000803e3d6000fd5b505050506040513d601f19601f8201168201806040525081019061057c9190612c42565b905090565b600260009054906101000a900473ffffffffffffffffffffffffffffffffffffffff1681565b600660009054906101000a900473ffffffffffffffffffffffffffffffffffffffff1681565b60008054906101000a900460ff1681565b600880546105eb9061395b565b80601f01602080910402602001604051908101604052809291908181526020018280546106179061395b565b80156106645780601f1061063957610100808354040283529160200191610664565b820191906000526020600020905b81548152906001019060200180831161064757829003601f168201915b505050505081565b600e60003373ffffffffffffffffffffffffffffffffffffffff1673ffffffffffffffffffffffffffffffffffffffff16815260200190815260200160002060009054906101000a900460ff166106f8576040517f08c379a00000000000000000000000000000000000000000000000000000000081526004016106ef906135aa565b60405180910390fd5b60046005811115610732577f4e487b7100000000000000000000000000000000000000000000000000000000600052602160045260246000fd5b60008054906101000a900460ff166005811115610778577f4e487b7100000000000000000000000000000000000000000000000000000000600052602160045260246000fd5b14156107b9576040517f08c379a00000000000000000000000000000000000000000000000000000000081526004016107b0906135ea565b60405180910390fd5b600360058111156107f3577f4e487b7100000000000000000000000000000000000000000000000000000000600052602160045260246000fd5b60008054906101000a900460ff166005811115610839577f4e487b7100000000000000000000000000000000000000000000000000000000600052602160045260246000fd5b141561087a576040517f08c379a0000000000000000000000000000000000000000000000000000000008152600401610871906134ea565b60405180910390fd5b60006108846104cf565b14610893576108916119ef565b505b600360009054906101000a900473ffffffffffffffffffffffffffffffffffffffff1673ffffffffffffffffffffffffffffffffffffffff16ff5b600980546108db9061395b565b80601f01602080910402602001604051908101604052809291908181526020018280546109079061395b565b80156109545780601f1061092957610100808354040283529160200191610954565b820191906000526020600020905b81548152906001019060200180831161093757829003601f168201915b505050505081565b42600b54116109a0576040517f08c379a00000000000000000000000000000000000000000000000000000000081526004016109979061360a565b60405180910390fd5b600060019054906101000a900473ffffffffffffffffffffffffffffffffffffffff1673ffffffffffffffffffffffffffffffffffffffff163373ffffffffffffffffffffffffffffffffffffffff161480610a455750600e60003373ffffffffffffffffffffffffffffffffffffffff1673ffffffffffffffffffffffffffffffffffffffff16815260200190815260200160002060009054906101000a900460ff165b610a84576040517f08c379a0000000000000000000000000000000000000000000000000000000008152600401610a7b9061358a565b60405180910390fd5b60036005811115610abe577f4e487b7100000000000000000000000000000000000000000000000000000000600052602160045260246000fd5b60008054906101000a900460ff166005811115610b04577f4e487b7100000000000000000000000000000000000000000000000000000000600052602160045260246000fd5b14610b44576040517f08c379a0000000000000000000000000000000000000000000000000000000008152600401610b3b9061342a565b60405180910390fd5b60046000806101000a81548160ff02191690836005811115610b8f577f4e487b7100000000000000000000000000000000000000000000000000000000600052602160045260246000fd5b0217905550565b600e60003373ffffffffffffffffffffffffffffffffffffffff1673ffffffffffffffffffffffffffffffffffffffff16815260200190815260200160002060009054906101000a900460ff16610c22576040517f08c379a0000000000000000000000000000000000000000000000000000000008152600401610c19906135aa565b60405180910390fd5b42600b5411610c66576040517f08c379a0000000000000000000000000000000000000000000000000000000008152600401610c5d9061360a565b60405180910390fd5b60016005811115610ca0577f4e487b7100000000000000000000000000000000000000000000000000000000600052602160045260246000fd5b60008054906101000a900460ff166005811115610ce6577f4e487b7100000000000000000000000000000000000000000000000000000000600052602160045260246000fd5b1480610d6f575060026005811115610d27577f4e487b7100000000000000000000000000000000000000000000000000000000600052602160045260246000fd5b60008054906101000a900460ff166005811115610d6d577f4e487b7100000000000000000000000000000000000000000000000000000000600052602160045260246000fd5b145b610dae576040517f08c379a0000000000000000000000000000000000000000000000000000000008152600401610da59061344a565b60405180910390fd5b7fb20e0717219840fd5684a80bec782e8babb56ea224f677561b791a61192605c18282604051610ddf92919061339c565b60405180910390a15050565b600160009054906101000a900473ffffffffffffffffffffffffffffffffffffffff1681565b600360009054906101000a900473ffffffffffffffffffffffffffffffffffffffff1681565b60078054610e449061395b565b80601f0160208091040260200160405190810160405280929190818152602001828054610e709061395b565b8015610ebd5780601f10610e9257610100808354040283529160200191610ebd565b820191906000526020600020905b815481529060010190602001808311610ea057829003601f168201915b505050505081565b600e60003373ffffffffffffffffffffffffffffffffffffffff1673ffffffffffffffffffffffffffffffffffffffff16815260200190815260200160002060009054906101000a900460ff16610f51576040517f08c379a0000000000000000000000000000000000000000000000000000000008152600401610f489061352a565b60405180910390fd5b60005b8151811015611008576001600e6000848481518110610f9c577f4e487b7100000000000000000000000000000000000000000000000000000000600052603260045260246000fd5b602002602001015173ffffffffffffffffffffffffffffffffffffffff1673ffffffffffffffffffffffffffffffffffffffff16815260200190815260200160002060006101000a81548160ff02191690831515021790555080806110009061398d565b915050610f54565b5050565b6000600e60003373ffffffffffffffffffffffffffffffffffffffff1673ffffffffffffffffffffffffffffffffffffffff16815260200190815260200160002060009054906101000a900460ff1661109a576040517f08c379a0000000000000000000000000000000000000000000000000000000008152600401611091906135aa565b60405180910390fd5b60006110a46104cf565b14156110e5576040517f08c379a00000000000000000000000000000000000000000000000000000000081526004016110dc9061362a565b60405180910390fd5b6000600581111561111f577f4e487b7100000000000000000000000000000000000000000000000000000000600052602160045260246000fd5b60008054906101000a900460ff166005811115611165577f4e487b7100000000000000000000000000000000000000000000000000000000600052602160045260246000fd5b14156111a6576040517f08c379a000000000000000000000000000000000000000000000000000000000815260040161119d9061346a565b60405180910390fd5b600360058111156111e0577f4e487b7100000000000000000000000000000000000000000000000000000000600052602160045260246000fd5b60008054906101000a900460ff166005811115611226577f4e487b7100000000000000000000000000000000000000000000000000000000600052602160045260246000fd5b1415611267576040517f08c379a000000000000000000000000000000000000000000000000000000000815260040161125e906134ea565b60405180910390fd5b42600b54116112ab576040517f08c379a00000000000000000000000000000000000000000000000000000000081526004016112a29061360a565b60405180910390fd5b84518651146112ef576040517f08c379a00000000000000000000000000000000000000000000000000000000081526004016112e69061354a565b60405180910390fd5b606463ffffffff16865110611339576040517f08c379a00000000000000000000000000000000000000000000000000000000081526004016113309061350a565b60405180910390fd5b60006113436104cf565b90506000600d60006101000a81548160ff0219169083151502179055506000805b87518110156113ce578781815181106113a6577f4e487b7100000000000000000000000000000000000000000000000000000000600052603260045260246000fd5b6020026020010151826113b9919061374f565b915080806113c69061398d565b915050611364565b506b033b2e3c9fd0803ce8000000811061141d576040517f08c379a0000000000000000000000000000000000000000000000000000000008152600401611414906135ca565b60405180910390fd5b8082101561143e57600d60009054906101000a900460ff16925050506119a9565b600080865114158061145257506000875114155b905080156114895786600990805190602001906114709291906126de565b5085600a90805190602001906114879291906126de565b505b6000806114958a61233e565b915091506000600660009054906101000a900473ffffffffffffffffffffffffffffffffffffffff16905060005b8c518110156115ef578173ffffffffffffffffffffffffffffffffffffffff1663a9059cbb8e8381518110611521577f4e487b7100000000000000000000000000000000000000000000000000000000600052603260045260246000fd5b6020026020010151600c8481548110611563577f4e487b7100000000000000000000000000000000000000000000000000000000600052603260045260246000fd5b90600052602060002001546040518363ffffffff1660e01b815260040161158b92919061331b565b602060405180830381600087803b1580156115a557600080fd5b505af11580156115b9573d6000803e3d6000fd5b505050506040513d601f19601f820116820180604052508101906115dd9190612b84565b50806115e89061398d565b90506114c3565b50600c60006115fe9190612764565b8073ffffffffffffffffffffffffffffffffffffffff1663a9059cbb600060019054906101000a900473ffffffffffffffffffffffffffffffffffffffff16856040518363ffffffff1660e01b815260040161165b92919061331b565b602060405180830381600087803b15801561167557600080fd5b505af1158015611689573d6000803e3d6000fd5b505050506040513d601f19601f820116820180604052508101906116ad9190612b84565b801561176457508073ffffffffffffffffffffffffffffffffffffffff1663a9059cbb600160009054906101000a900473ffffffffffffffffffffffffffffffffffffffff16846040518363ffffffff1660e01b815260040161171192919061331b565b602060405180830381600087803b15801561172b57600080fd5b505af115801561173f573d6000803e3d6000fd5b505050506040513d601f19601f820116820180604052508101906117639190612b84565b5b600d60006101000a81548160ff0219169083151502179055506117856104cf565b9550600d60009054906101000a900460ff161561195757600160058111156117d6577f4e487b7100000000000000000000000000000000000000000000000000000000600052602160045260246000fd5b60008054906101000a900460ff16600581111561181c577f4e487b7100000000000000000000000000000000000000000000000000000000600052602160045260246000fd5b14156118735760026000806101000a81548160ff0219169083600581111561186d577f4e487b7100000000000000000000000000000000000000000000000000000000600052602160045260246000fd5b02179055505b6000861480156119005750600260058111156118b8577f4e487b7100000000000000000000000000000000000000000000000000000000600052602160045260246000fd5b60008054906101000a900460ff1660058111156118fe577f4e487b7100000000000000000000000000000000000000000000000000000000600052602160045260246000fd5b145b156119565760036000806101000a81548160ff02191690836005811115611950577f4e487b7100000000000000000000000000000000000000000000000000000000600052602160045260246000fd5b02179055505b5b877f8ed71c3a6fb899bfe96968ade5a4119b380c0d642a775106eb80aa795450777e8d51604051611988919061364a565b60405180910390a2600d60009054906101000a900460ff1696505050505050505b95945050505050565b60045481565b600d60009054906101000a900460ff1681565b600c81815481106119db57600080fd5b906000526020600020016000915090505481565b6000600e60003373ffffffffffffffffffffffffffffffffffffffff1673ffffffffffffffffffffffffffffffffffffffff16815260200190815260200160002060009054906101000a900460ff16611a7d576040517f08c379a0000000000000000000000000000000000000000000000000000000008152600401611a74906135aa565b60405180910390fd5b6000611a876104cf565b1415611ac8576040517f08c379a0000000000000000000000000000000000000000000000000000000008152600401611abf9061362a565b60405180910390fd5b60046005811115611b02577f4e487b7100000000000000000000000000000000000000000000000000000000600052602160045260246000fd5b60008054906101000a900460ff166005811115611b48577f4e487b7100000000000000000000000000000000000000000000000000000000600052602160045260246000fd5b1415611b89576040517f08c379a0000000000000000000000000000000000000000000000000000000008152600401611b80906135ea565b60405180910390fd5b60036005811115611bc3577f4e487b7100000000000000000000000000000000000000000000000000000000600052602160045260246000fd5b60008054906101000a900460ff166005811115611c09577f4e487b7100000000000000000000000000000000000000000000000000000000600052602160045260246000fd5b1415611c4a576040517f08c379a0000000000000000000000000000000000000000000000000000000008152600401611c41906134ea565b60405180910390fd5b6000600660009054906101000a900473ffffffffffffffffffffffffffffffffffffffff1673ffffffffffffffffffffffffffffffffffffffff1663a9059cbb600360009054906101000a900473ffffffffffffffffffffffffffffffffffffffff16611cb56104cf565b6040518363ffffffff1660e01b8152600401611cd29291906132f2565b602060405180830381600087803b158015611cec57600080fd5b505af1158015611d00573d6000803e3d6000fd5b505050506040513d601f19601f82011682018060405250810190611d249190612b84565b905060056000806101000a81548160ff02191690836005811115611d71577f4e487b7100000000000000000000000000000000000000000000000000000000600052602160045260246000fd5b02179055508091505090565b600e6020528060005260406000206000915054906101000a900460ff1681565b600e60003373ffffffffffffffffffffffffffffffffffffffff1673ffffffffffffffffffffffffffffffffffffffff16815260200190815260200160002060009054906101000a900460ff16611e29576040517f08c379a0000000000000000000000000000000000000000000000000000000008152600401611e20906135aa565b60405180910390fd5b42600b5411611e6d576040517f08c379a0000000000000000000000000000000000000000000000000000000008152600401611e649061360a565b60405180910390fd5b600073ffffffffffffffffffffffffffffffffffffffff168673ffffffffffffffffffffffffffffffffffffffff161415611edd576040517f08c379a0000000000000000000000000000000000000000000000000000000008152600401611ed49061340a565b60405180910390fd5b600073ffffffffffffffffffffffffffffffffffffffff168573ffffffffffffffffffffffffffffffffffffffff161415611f4d576040517f08c379a0000000000000000000000000000000000000000000000000000000008152600401611f449061340a565b60405180910390fd5b6000611f6284866122e090919063ffffffff16565b905060008110158015611f76575060648111155b611fb5576040517f08c379a0000000000000000000000000000000000000000000000000000000008152600401611fac9061348a565b60405180910390fd5b60006005811115611fef577f4e487b7100000000000000000000000000000000000000000000000000000000600052602160045260246000fd5b60008054906101000a900460ff166005811115612035577f4e487b7100000000000000000000000000000000000000000000000000000000600052602160045260246000fd5b14612075576040517f08c379a000000000000000000000000000000000000000000000000000000000815260040161206c906134aa565b60405180910390fd5b86600060016101000a81548173ffffffffffffffffffffffffffffffffffffffff021916908373ffffffffffffffffffffffffffffffffffffffff16021790555085600160006101000a81548173ffffffffffffffffffffffffffffffffffffffff021916908373ffffffffffffffffffffffffffffffffffffffff1602179055506001600e60008060019054906101000a900473ffffffffffffffffffffffffffffffffffffffff1673ffffffffffffffffffffffffffffffffffffffff1673ffffffffffffffffffffffffffffffffffffffff16815260200190815260200160002060006101000a81548160ff0219169083151502179055506001600e6000600160009054906101000a900473ffffffffffffffffffffffffffffffffffffffff1673ffffffffffffffffffffffffffffffffffffffff1673ffffffffffffffffffffffffffffffffffffffff16815260200190815260200160002060006101000a81548160ff0219169083151502179055508460048190555083600581905550826007908051906020019061220e9291906126de565b5081600890805190602001906122259291906126de565b5060016000806101000a81548160ff02191690836005811115612271577f4e487b7100000000000000000000000000000000000000000000000000000000600052602160045260246000fd5b02179055507f8ec464ac0c8e44e17130cd1ffb09967fa6f2c33339289678a59ea0112cfc2aa9600760086040516122a99291906133d3565b60405180910390a150505050505050565b600060019054906101000a900473ffffffffffffffffffffffffffffffffffffffff1681565b60008082846122ef919061374f565b905083811015612334576040517f08c379a000000000000000000000000000000000000000000000000000000000815260040161232b906134ca565b60405180910390fd5b8091505092915050565b60008060008060005b85518110156124fa5760006123ba60646123ac898581518110612393577f4e487b7100000000000000000000000000000000000000000000000000000000600052603260045260246000fd5b602002602001015160045461250890919063ffffffff16565b61258390919063ffffffff16565b9050600061242660646124188a86815181106123ff577f4e487b7100000000000000000000000000000000000000000000000000000000600052603260045260246000fd5b602002602001015160055461250890919063ffffffff16565b61258390919063ffffffff16565b9050600061248f82612481858c888151811061246b577f4e487b7100000000000000000000000000000000000000000000000000000000600052603260045260246000fd5b60200260200101516125cd90919063ffffffff16565b6125cd90919063ffffffff16565b90506124a483876122e090919063ffffffff16565b95506124b982866122e090919063ffffffff16565b9450600c81908060018154018082558091505060019003906000526020600020016000909190919091505550505080806124f29061398d565b915050612347565b508181935093505050915091565b60008083141561251b576000905061257d565b6000828461252991906137d6565b905082848261253891906137a5565b14612578576040517f08c379a000000000000000000000000000000000000000000000000000000000815260040161256f9061356a565b60405180910390fd5b809150505b92915050565b60006125c583836040518060400160405280601a81526020017f536166654d6174683a206469766973696f6e206279207a65726f000000000000815250612617565b905092915050565b600061260f83836040518060400160405280601e81526020017f536166654d6174683a207375627472616374696f6e206f766572666c6f77000081525061267a565b905092915050565b6000808311829061265e576040517f08c379a0000000000000000000000000000000000000000000000000000000008152600401612655919061337a565b60405180910390fd5b506000838561266d91906137a5565b9050809150509392505050565b60008383111582906126c2576040517f08c379a00000000000000000000000000000000000000000000000000000000081526004016126b9919061337a565b60405180910390fd5b50600083856126d19190613830565b9050809150509392505050565b8280546126ea9061395b565b90600052602060002090601f01602090048101928261270c5760008555612753565b82601f1061272557805160ff1916838001178555612753565b82800160010185558215612753579182015b82811115612752578251825591602001919060010190612737565b5b5090506127609190612785565b5090565b50805460008255906000526020600020908101906127829190612785565b50565b5b8082111561279e576000816000905550600101612786565b5090565b60006127b56127b084613696565b613665565b905080838252602082019050828560208602820111156127d457600080fd5b60005b8581101561280457816127ea88826128b8565b8452602084019350602083019250506001810190506127d7565b5050509392505050565b600061282161281c846136c2565b613665565b9050808382526020820190508285602086028201111561284057600080fd5b60005b8581101561287057816128568882612960565b845260208401935060208301925050600181019050612843565b5050509392505050565b600061288d612888846136ee565b613665565b9050828152602081018484840111156128a557600080fd5b6128b0848285613919565b509392505050565b6000813590506128c781613ae6565b92915050565b600082601f8301126128de57600080fd5b81356128ee8482602086016127a2565b91505092915050565b600082601f83011261290857600080fd5b813561291884826020860161280e565b91505092915050565b60008151905061293081613afd565b92915050565b600082601f83011261294757600080fd5b813561295784826020860161287a565b91505092915050565b60008135905061296f81613b14565b92915050565b60008151905061298481613b14565b92915050565b60006020828403121561299c57600080fd5b60006129aa848285016128b8565b91505092915050565b60008060008060008060c087890312156129cc57600080fd5b60006129da89828a016128b8565b96505060206129eb89828a016128b8565b95505060406129fc89828a01612960565b9450506060612a0d89828a01612960565b935050608087013567ffffffffffffffff811115612a2a57600080fd5b612a3689828a01612936565b92505060a087013567ffffffffffffffff811115612a5357600080fd5b612a5f89828a01612936565b9150509295509295509295565b600060208284031215612a7e57600080fd5b600082013567ffffffffffffffff811115612a9857600080fd5b612aa4848285016128cd565b91505092915050565b600080600080600060a08688031215612ac557600080fd5b600086013567ffffffffffffffff811115612adf57600080fd5b612aeb888289016128cd565b955050602086013567ffffffffffffffff811115612b0857600080fd5b612b14888289016128f7565b945050604086013567ffffffffffffffff811115612b3157600080fd5b612b3d88828901612936565b935050606086013567ffffffffffffffff811115612b5a57600080fd5b612b6688828901612936565b9250506080612b7788828901612960565b9150509295509295909350565b600060208284031215612b9657600080fd5b6000612ba484828501612921565b91505092915050565b60008060408385031215612bc057600080fd5b600083013567ffffffffffffffff811115612bda57600080fd5b612be685828601612936565b925050602083013567ffffffffffffffff811115612c0357600080fd5b612c0f85828601612936565b9150509250929050565b600060208284031215612c2b57600080fd5b6000612c3984828501612960565b91505092915050565b600060208284031215612c5457600080fd5b6000612c6284828501612975565b91505092915050565b612c74816138d1565b82525050565b612c8381613876565b82525050565b612c9281613864565b82525050565b612ca181613888565b82525050565b612cb0816138e3565b82525050565b6000612cc182613733565b612ccb818561373e565b9350612cdb818560208601613928565b612ce481613ac1565b840191505092915050565b60008154612cfc8161395b565b612d06818661373e565b94506001821660008114612d215760018114612d3357612d66565b60ff1983168652602086019350612d66565b612d3c8561371e565b60005b83811015612d5e57815481890152600182019150602081019050612d3f565b808801955050505b50505092915050565b6000612d7c60208361373e565b91507f496e76616c6964206f72206d697373696e6720746f6b656e207370656e6465726000830152602082019050919050565b6000612dbc60188361373e565b91507f457363726f77206e6f7420696e205061696420737461746500000000000000006000830152602082019050919050565b6000612dfc602d8361373e565b91507f457363726f77206e6f7420696e2050656e64696e67206f72205061727469616c60008301527f20737461747573207374617465000000000000000000000000000000000000006020830152604082019050919050565b6000612e62601f8361373e565b91507f457363726f7720696e204c61756e6368656420737461747573207374617465006000830152602082019050919050565b6000612ea260138361373e565b91507f5374616b65206f7574206f6620626f756e6473000000000000000000000000006000830152602082019050919050565b6000612ee260238361373e565b91507f457363726f77206e6f7420696e204c61756e636865642073746174757320737460008301527f61746500000000000000000000000000000000000000000000000000000000006020830152604082019050919050565b6000612f48601b8361373e565b91507f536166654d6174683a206164646974696f6e206f766572666c6f7700000000006000830152602082019050919050565b6000612f88601b8361373e565b91507f457363726f7720696e20506169642073746174757320737461746500000000006000830152602082019050919050565b6000612fc860138361373e565b91507f546f6f206d616e7920726563697069656e7473000000000000000000000000006000830152602082019050919050565b6000613008602b8361373e565b91507f416464726573732063616c6c696e672063616e6e6f742061646420747275737460008301527f65642068616e646c6572730000000000000000000000000000000000000000006020830152604082019050919050565b600061306e602b8361373e565b91507f416d6f756e74206f6620726563697069656e747320616e642076616c7565732060008301527f646f6e2774206d617463680000000000000000000000000000000000000000006020830152604082019050919050565b60006130d460218361373e565b91507f536166654d6174683a206d756c7469706c69636174696f6e206f766572666c6f60008301527f77000000000000000000000000000000000000000000000000000000000000006020830152604082019050919050565b600061313a601e8361373e565b91507f416464726573732063616c6c696e67206973206e6f74207472757374656400006000830152602082019050919050565b600061317a601b8361373e565b91507f416464726573732063616c6c696e67206e6f74207472757374656400000000006000830152602082019050919050565b60006131ba60138361373e565b91507f42756c6b2076616c756520746f6f2068696768000000000000000000000000006000830152602082019050919050565b60006131fa601f8361373e565b91507f457363726f7720696e20436f6d706c65746520737461747573207374617465006000830152602082019050919050565b600061323a60108361373e565b91507f436f6e74726163742065787069726564000000000000000000000000000000006000830152602082019050919050565b600061327a601b8361373e565b91507f454950323020636f6e7472616374206f7574206f662066756e647300000000006000830152602082019050919050565b6132b6816138c7565b82525050565b60006020820190506132d16000830184612c89565b92915050565b60006020820190506132ec6000830184612c7a565b92915050565b60006040820190506133076000830185612c6b565b61331460208301846132ad565b9392505050565b60006040820190506133306000830185612c89565b61333d60208301846132ad565b9392505050565b60006020820190506133596000830184612c98565b92915050565b60006020820190506133746000830184612ca7565b92915050565b600060208201905081810360008301526133948184612cb6565b905092915050565b600060408201905081810360008301526133b68185612cb6565b905081810360208301526133ca8184612cb6565b90509392505050565b600060408201905081810360008301526133ed8185612cef565b905081810360208301526134018184612cef565b90509392505050565b6000602082019050818103600083015261342381612d6f565b9050919050565b6000602082019050818103600083015261344381612daf565b9050919050565b6000602082019050818103600083015261346381612def565b9050919050565b6000602082019050818103600083015261348381612e55565b9050919050565b600060208201905081810360008301526134a381612e95565b9050919050565b600060208201905081810360008301526134c381612ed5565b9050919050565b600060208201905081810360008301526134e381612f3b565b9050919050565b6000602082019050818103600083015261350381612f7b565b9050919050565b6000602082019050818103600083015261352381612fbb565b9050919050565b6000602082019050818103600083015261354381612ffb565b9050919050565b6000602082019050818103600083015261356381613061565b9050919050565b60006020820190508181036000830152613583816130c7565b9050919050565b600060208201905081810360008301526135a38161312d565b9050919050565b600060208201905081810360008301526135c38161316d565b9050919050565b600060208201905081810360008301526135e3816131ad565b9050919050565b60006020820190508181036000830152613603816131ed565b9050919050565b600060208201905081810360008301526136238161322d565b9050919050565b600060208201905081810360008301526136438161326d565b9050919050565b600060208201905061365f60008301846132ad565b92915050565b6000604051905081810181811067ffffffffffffffff8211171561368c5761368b613a92565b5b8060405250919050565b600067ffffffffffffffff8211156136b1576136b0613a92565b5b602082029050602081019050919050565b600067ffffffffffffffff8211156136dd576136dc613a92565b5b602082029050602081019050919050565b600067ffffffffffffffff82111561370957613708613a92565b5b601f19601f8301169050602081019050919050565b60008190508160005260206000209050919050565b600081519050919050565b600082825260208201905092915050565b600061375a826138c7565b9150613765836138c7565b9250827fffffffffffffffffffffffffffffffffffffffffffffffffffffffffffffffff0382111561379a576137996139d6565b5b828201905092915050565b60006137b0826138c7565b91506137bb836138c7565b9250826137cb576137ca613a05565b5b828204905092915050565b60006137e1826138c7565b91506137ec836138c7565b9250817fffffffffffffffffffffffffffffffffffffffffffffffffffffffffffffffff0483118215151615613825576138246139d6565b5b828202905092915050565b600061383b826138c7565b9150613846836138c7565b925082821015613859576138586139d6565b5b828203905092915050565b600061386f826138a7565b9050919050565b6000613881826138a7565b9050919050565b60008115159050919050565b60008190506138a282613ad2565b919050565b600073ffffffffffffffffffffffffffffffffffffffff82169050919050565b6000819050919050565b60006138dc826138f5565b9050919050565b60006138ee82613894565b9050919050565b600061390082613907565b9050919050565b6000613912826138a7565b9050919050565b82818337600083830152505050565b60005b8381101561394657808201518184015260208101905061392b565b83811115613955576000848401525b50505050565b6000600282049050600182168061397357607f821691505b6020821081141561398757613986613a63565b5b50919050565b6000613998826138c7565b91507fffffffffffffffffffffffffffffffffffffffffffffffffffffffffffffffff8214156139cb576139ca6139d6565b5b600182019050919050565b7f4e487b7100000000000000000000000000000000000000000000000000000000600052601160045260246000fd5b7f4e487b7100000000000000000000000000000000000000000000000000000000600052601260045260246000fd5b7f4e487b7100000000000000000000000000000000000000000000000000000000600052602160045260246000fd5b7f4e487b7100000000000000000000000000000000000000000000000000000000600052602260045260246000fd5b7f4e487b7100000000000000000000000000000000000000000000000000000000600052604160045260246000fd5b6000601f19601f8301169050919050565b60068110613ae357613ae2613a34565b5b50565b613aef81613864565b8114613afa57600080fd5b50565b613b0681613888565b8114613b1157600080fd5b50565b613b1d816138c7565b8114613b2857600080fd5b5056fea26469706673582212206b0d0c042ce695c63ee3d6f34e35a1d1f6d7c71cbe0eb8eee4bdee0093ae28f764736f6c63430008000033",
  "linkReferences": {},
  "deployedLinkReferences": {}
}